{
  "contractName": "Exchange",
  "abi": [
    {
      "constant": true,
      "inputs": [
        {
          "name": "symbolName",
          "type": "string"
        }
      ],
      "name": "getBuyOrderBook",
      "outputs": [
        {
          "name": "",
          "type": "uint256[]"
        },
        {
          "name": "",
          "type": "uint256[]"
        }
      ],
      "payable": false,
      "stateMutability": "view",
      "type": "function"
    },
    {
      "constant": true,
      "inputs": [],
      "name": "getEthBalanceInWei",
      "outputs": [
        {
          "name": "",
          "type": "uint256"
        }
      ],
      "payable": false,
      "stateMutability": "view",
      "type": "function"
    },
    {
      "constant": false,
      "inputs": [
        {
          "name": "symbolName",
          "type": "string"
        },
        {
          "name": "amount",
          "type": "uint256"
        }
      ],
      "name": "depositToken",
      "outputs": [],
      "payable": false,
      "stateMutability": "nonpayable",
      "type": "function"
    },
    {
      "constant": true,
      "inputs": [
        {
          "name": "symbolName",
          "type": "string"
        }
      ],
      "name": "getBalance",
      "outputs": [
        {
          "name": "",
          "type": "uint256"
        }
      ],
      "payable": false,
      "stateMutability": "view",
      "type": "function"
    },
    {
      "constant": false,
      "inputs": [
        {
          "name": "amountInWei",
          "type": "uint256"
        }
      ],
      "name": "withdrawEther",
      "outputs": [],
      "payable": false,
      "stateMutability": "nonpayable",
      "type": "function"
    },
    {
      "constant": false,
      "inputs": [
        {
          "name": "symbolName",
          "type": "string"
        },
        {
          "name": "priceInWei",
          "type": "uint256"
        },
        {
          "name": "amount",
          "type": "uint256"
        }
      ],
      "name": "buyToken",
      "outputs": [],
      "payable": false,
      "stateMutability": "nonpayable",
      "type": "function"
    },
    {
      "constant": true,
      "inputs": [
        {
          "name": "symbolName",
          "type": "string"
        }
      ],
      "name": "getSellOrderBook",
      "outputs": [
        {
          "name": "",
          "type": "uint256[]"
        },
        {
          "name": "",
          "type": "uint256[]"
        }
      ],
      "payable": false,
      "stateMutability": "view",
      "type": "function"
    },
    {
      "constant": false,
      "inputs": [
        {
          "name": "symbolName",
          "type": "string"
        },
        {
          "name": "priceInWei",
          "type": "uint256"
        },
        {
          "name": "amount",
          "type": "uint256"
        }
      ],
      "name": "sellToken",
      "outputs": [],
      "payable": false,
      "stateMutability": "nonpayable",
      "type": "function"
    },
    {
      "constant": true,
      "inputs": [
        {
          "name": "symbolName",
          "type": "string"
        }
      ],
      "name": "hasToken",
      "outputs": [
        {
          "name": "",
          "type": "bool"
        }
      ],
      "payable": false,
      "stateMutability": "view",
      "type": "function"
    },
    {
      "constant": false,
      "inputs": [],
      "name": "depositEther",
      "outputs": [],
      "payable": true,
      "stateMutability": "payable",
      "type": "function"
    },
    {
      "constant": false,
      "inputs": [
        {
          "name": "symbolName",
          "type": "string"
        },
        {
          "name": "erc20TokenAddress",
          "type": "address"
        }
      ],
      "name": "addToken",
      "outputs": [],
      "payable": false,
      "stateMutability": "nonpayable",
      "type": "function"
    },
    {
      "constant": false,
      "inputs": [
        {
          "name": "symbolName",
          "type": "string"
        },
        {
          "name": "amount",
          "type": "uint256"
        }
      ],
      "name": "withdrawToken",
      "outputs": [],
      "payable": false,
      "stateMutability": "nonpayable",
      "type": "function"
    },
    {
      "constant": false,
      "inputs": [
        {
          "name": "symbolName",
          "type": "string"
        },
        {
          "name": "isSellOrder",
          "type": "bool"
        },
        {
          "name": "priceInWei",
          "type": "uint256"
        },
        {
          "name": "offerKey",
          "type": "uint256"
        }
      ],
      "name": "cancelOrder",
      "outputs": [],
      "payable": false,
      "stateMutability": "nonpayable",
      "type": "function"
    }
  ],
  "bytecode": "0x6060604052336000806101000a81548173ffffffffffffffffffffffffffffffffffffffff021916908373ffffffffffffffffffffffffffffffffffffffff160217905550610b58806100536000396000f3006060604052600436106100c5576000357c0100000000000000000000000000000000000000000000000000000000900463ffffffff16806303bc4a27146100ca5780631a8eb72b146101c457806333ad57e4146101ed5780633a51d246146102535780633bed33ce146102c45780635ab8ea33146102e7578063728ff02914610356578063851030fe146104505780638ea00818146104bf57806398ea5fca14610534578063b0b22c2c1461053e578063c97a413a146105ba578063d1a3b02514610620575b600080fd5b34156100d557600080fd5b610125600480803590602001908201803590602001908080601f0160208091040260200160405190810160405280939291908181526020018383808284378201915050505050509190505061069a565b604051808060200180602001838103835285818151815260200191508051906020019060200280838360005b8381101561016c578082015181840152602081019050610151565b50505050905001838103825284818151815260200191508051906020019060200280838360005b838110156101ae578082015181840152602081019050610193565b5050505090500194505050505060405180910390f35b34156101cf57600080fd5b6101d76106af565b6040518082815260200191505060405180910390f35b34156101f857600080fd5b610251600480803590602001908201803590602001908080601f016020809104026020016040519081016040528093929190818152602001838380828437820191505050505050919080359060200190919050506106b4565b005b341561025e57600080fd5b6102ae600480803590602001908201803590602001908080601f016020809104026020016040519081016040528093929190818152602001838380828437820191505050505050919050506106b8565b6040518082815260200191505060405180910390f35b34156102cf57600080fd5b6102e560048080359060200190919050506106bf565b005b34156102f257600080fd5b610354600480803590602001908201803590602001908080601f016020809104026020016040519081016040528093929190818152602001838380828437820191505050505050919080359060200190919080359060200190919050506106c2565b005b341561036157600080fd5b6103b1600480803590602001908201803590602001908080601f016020809104026020016040519081016040528093929190818152602001838380828437820191505050505050919050506106c7565b604051808060200180602001838103835285818151815260200191508051906020019060200280838360005b838110156103f85780820151818401526020810190506103dd565b50505050905001838103825284818151815260200191508051906020019060200280838360005b8381101561043a57808201518184015260208101905061041f565b5050505090500194505050505060405180910390f35b341561045b57600080fd5b6104bd600480803590602001908201803590602001908080601f016020809104026020016040519081016040528093929190818152602001838380828437820191505050505050919080359060200190919080359060200190919050506106dc565b005b34156104ca57600080fd5b61051a600480803590602001908201803590602001908080601f016020809104026020016040519081016040528093929190818152602001838380828437820191505050505050919050506106e1565b604051808215151515815260200191505060405180910390f35b61053c61070f565b005b341561054957600080fd5b6105b8600480803590602001908201803590602001908080601f0160208091040260200160405190810160405280939291908181526020018383808284378201915050505050509190803573ffffffffffffffffffffffffffffffffffffffff16906020019091905050610711565b005b34156105c557600080fd5b61061e600480803590602001908201803590602001908080601f0160208091040260200160405190810160405280939291908181526020018383808284378201915050505050509190803590602001909190505061085c565b005b341561062b57600080fd5b610698600480803590602001908201803590602001908080601f016020809104026020016040519081016040528093929190818152602001838380828437820191505050505050919080351515906020019091908035906020019091908035906020019091905050610860565b005b6106a2610a5f565b6106aa610a5f565b915091565b600090565b5050565b6000919050565b50565b505050565b6106cf610a5f565b6106d7610a5f565b915091565b505050565b6000806106ed83610866565b905060008160ff1614156107045760009150610709565b600191505b50919050565b565b6000809054906101000a900473ffffffffffffffffffffffffffffffffffffffff1673ffffffffffffffffffffffffffffffffffffffff163373ffffffffffffffffffffffffffffffffffffffff1614156108585761076f826106e1565b15151561077b57600080fd5b6002600081819054906101000a900460ff168092919060010191906101000a81548160ff021916908360ff160217905550508160016000600260009054906101000a900460ff1660ff1660ff16815260200190815260200160002060010190805190602001906107ec929190610a73565b508060016000600260009054906101000a900460ff1660ff1660ff16815260200190815260200160002060000160006101000a81548173ffffffffffffffffffffffffffffffffffffffff021916908373ffffffffffffffffffffffffffffffffffffffff1602179055505b5050565b5050565b50505050565b600080600190505b600260009054906101000a900460ff1660ff168160ff161115156108cb576108b1600160008360ff1660ff168152602001908152602001600020600101846108d6565b156108be578091506108d0565b808060010191505061086e565b600091505b50919050565b6000806108e1610af3565b60008592508491508151838054600181600116156101000203166002900490501415156109115760009350610a56565b600090505b82805460018160011615610100020316600290049050811015610a5157818181518110151561094157fe5b9060200101517f010000000000000000000000000000000000000000000000000000000000000090047f0100000000000000000000000000000000000000000000000000000000000000027effffffffffffffffffffffffffffffffffffffffffffffffffffffffffffff1916838281546001816001161561010002031660029004811015156109cd57fe5b8154600116156109ec5790600052602060002090602091828204019190065b9054901a7f0100000000000000000000000000000000000000000000000000000000000000027effffffffffffffffffffffffffffffffffffffffffffffffffffffffffffff1916141515610a445760009350610a56565b8080600101915050610916565b600193505b50505092915050565b602060405190810160405280600081525090565b828054600181600116156101000203166002900490600052602060002090601f016020900481019282601f10610ab457805160ff1916838001178555610ae2565b82800160010185558215610ae2579182015b82811115610ae1578251825591602001919060010190610ac6565b5b509050610aef9190610b07565b5090565b602060405190810160405280600081525090565b610b2991905b80821115610b25576000816000905550600101610b0d565b5090565b905600a165627a7a72305820226e203d1ee863957f983700120e631c788ab5b329b014a6f1723b861f2d8c8a0029",
  "source": "pragma solidity ^0.4.13;\n\n\nimport \"./owned.sol\";\nimport \"./FixedSupplyToken.sol\";\n\n\ncontract Exchange is owned {\n\n    ///////////////////////\n    // GENERAL STRUCTURE //\n    ///////////////////////\n    struct Offer {\n        \n        uint amount;\n        address who;\n    }\n\n    struct OrderBook {\n        \n        uint higherPrice;\n        uint lowerPrice;\n        \n        mapping (uint => Offer) offers;\n        \n        uint offers_key;\n        uint offers_length;\n    }\n\n    struct Token {\n        \n        address tokenContract;\n\n        string symbolName;\n        \n        \n        mapping (uint => OrderBook) buyBook;\n        \n        uint curBuyPrice;\n        uint lowestBuyPrice;\n        uint amountBuyPrices;\n\n\n        mapping (uint => OrderBook) sellBook;\n        uint curSellPrice;\n        uint highestSellPrice;\n        uint amountSellPrices;\n\n    }\n\n\n    //we support a max of 255 tokens...\n    mapping (uint8 => Token) tokens;\n    uint8 symbolNameIndex;\n\n\n    //////////////\n    // BALANCES //\n    //////////////\n    mapping (address => mapping (uint8 => uint)) tokenBalanceForAddress;\n\n    mapping (address => uint) balanceEthForAddress;\n\n\n\n\n    ////////////\n    // EVENTS //\n    ////////////\n\n\n\n\n    //////////////////////////////////\n    // DEPOSIT AND WITHDRAWAL ETHER //\n    //////////////////////////////////\n    function depositEther() payable {\n    }\n\n    function withdrawEther(uint amountInWei) {\n    }\n\n    function getEthBalanceInWei() constant returns (uint){\n    }\n\n\n    //////////////////////\n    // TOKEN MANAGEMENT //\n    //////////////////////\n\n    function addToken(string symbolName, address erc20TokenAddress) onlyowner {\n        require(!hasToken(symbolName));\n        symbolNameIndex++;\n        tokens[symbolNameIndex].symbolName = symbolName;\n        tokens[symbolNameIndex].tokenContract = erc20TokenAddress;\n    }\n\n    function hasToken(string symbolName) constant returns (bool) {\n        uint8 index = getSymbolIndex(symbolName);\n        if (index == 0) {\n            return false;\n        }\n        return true;\n    }\n\n\n     function getSymbolIndex(string symbolName) internal returns (uint8) {\n        for (uint8 i = 1; i <= symbolNameIndex; i++) {\n            if (stringsEqual(tokens[i].symbolName, symbolName)) {\n                return i;\n            }\n        }\n        return 0;\n    }\n\n\n\n\n    ////////////////////////////////\n    // STRING COMPARISON FUNCTION //\n    ////////////////////////////////\n    function stringsEqual(string storage _a, string memory _b) internal returns (bool) {\n        bytes storage a = bytes(_a);\n        bytes memory b = bytes(_b);\n        if (a.length != b.length)\n            return false;\n        // @todo unroll this loop\n        for (uint i = 0; i < a.length; i ++)\n            if (a[i] != b[i])\n                return false;\n        return true;\n    }\n\n\n    //////////////////////////////////\n    // DEPOSIT AND WITHDRAWAL TOKEN //\n    //////////////////////////////////\n    function depositToken(string symbolName, uint amount) {\n    }\n\n    function withdrawToken(string symbolName, uint amount) {\n    }\n\n    function getBalance(string symbolName) constant returns (uint) {\n    }\n\n\n\n\n\n    /////////////////////////////\n    // ORDER BOOK - BID ORDERS //\n    /////////////////////////////\n    function getBuyOrderBook(string symbolName) constant returns (uint[], uint[]) {\n    }\n\n\n    /////////////////////////////\n    // ORDER BOOK - ASK ORDERS //\n    /////////////////////////////\n    function getSellOrderBook(string symbolName) constant returns (uint[], uint[]) {\n    }\n\n\n\n    ////////////////////////////\n    // NEW ORDER - BID ORDER //\n    ///////////////////////////\n    function buyToken(string symbolName, uint priceInWei, uint amount) {\n    }\n\n\n\n\n\n    ////////////////////////////\n    // NEW ORDER - ASK ORDER //\n    ///////////////////////////\n    function sellToken(string symbolName, uint priceInWei, uint amount) {\n    }\n\n\n\n    //////////////////////////////\n    // CANCEL LIMIT ORDER LOGIC //\n    //////////////////////////////\n    function cancelOrder(string symbolName, bool isSellOrder, uint priceInWei, uint offerKey) {\n    }\n\n\n\n}",
  "sourcePath": "/home/thienloc/working/assignment_1/contracts/Exchange.sol",
  "compiler": {
    "name": "solc",
    "version": "0.4.18+commit.9cf6e910.Emscripten.clang"
  },
  "schemaVersion": "1.0.1",
  "updatedAt": "2017-12-18T10:56:56.953Z"
}